{
  "contractName": "PlatziPunks",
  "abi": [
    {
      "inputs": [
        {
          "internalType": "uint256",
          "name": "_maxSupply",
          "type": "uint256"
        }
      ],
      "stateMutability": "nonpayable",
      "type": "constructor"
    },
    {
      "anonymous": false,
      "inputs": [
        {
          "indexed": true,
          "internalType": "address",
          "name": "owner",
          "type": "address"
        },
        {
          "indexed": true,
          "internalType": "address",
          "name": "approved",
          "type": "address"
        },
        {
          "indexed": true,
          "internalType": "uint256",
          "name": "tokenId",
          "type": "uint256"
        }
      ],
      "name": "Approval",
      "type": "event"
    },
    {
      "anonymous": false,
      "inputs": [
        {
          "indexed": true,
          "internalType": "address",
          "name": "owner",
          "type": "address"
        },
        {
          "indexed": true,
          "internalType": "address",
          "name": "operator",
          "type": "address"
        },
        {
          "indexed": false,
          "internalType": "bool",
          "name": "approved",
          "type": "bool"
        }
      ],
      "name": "ApprovalForAll",
      "type": "event"
    },
    {
      "anonymous": false,
      "inputs": [
        {
          "indexed": true,
          "internalType": "address",
          "name": "previousOwner",
          "type": "address"
        },
        {
          "indexed": true,
          "internalType": "address",
          "name": "newOwner",
          "type": "address"
        }
      ],
      "name": "OwnershipTransferred",
      "type": "event"
    },
    {
      "anonymous": false,
      "inputs": [
        {
          "indexed": true,
          "internalType": "address",
          "name": "from",
          "type": "address"
        },
        {
          "indexed": true,
          "internalType": "address",
          "name": "to",
          "type": "address"
        },
        {
          "indexed": true,
          "internalType": "uint256",
          "name": "tokenId",
          "type": "uint256"
        }
      ],
      "name": "Transfer",
      "type": "event"
    },
    {
      "inputs": [
        {
          "internalType": "address",
          "name": "to",
          "type": "address"
        },
        {
          "internalType": "uint256",
          "name": "tokenId",
          "type": "uint256"
        }
      ],
      "name": "approve",
      "outputs": [],
      "stateMutability": "nonpayable",
      "type": "function"
    },
    {
      "inputs": [
        {
          "internalType": "address",
          "name": "owner",
          "type": "address"
        }
      ],
      "name": "balanceOf",
      "outputs": [
        {
          "internalType": "uint256",
          "name": "",
          "type": "uint256"
        }
      ],
      "stateMutability": "view",
      "type": "function",
      "constant": true
    },
    {
      "inputs": [
        {
          "internalType": "uint256",
          "name": "_tokenId",
          "type": "uint256"
        },
        {
          "internalType": "address",
          "name": "_minter",
          "type": "address"
        }
      ],
      "name": "deterministicPseudoRandomDNA",
      "outputs": [
        {
          "internalType": "uint256",
          "name": "",
          "type": "uint256"
        }
      ],
      "stateMutability": "pure",
      "type": "function",
      "constant": true
    },
    {
      "inputs": [
        {
          "internalType": "uint256",
          "name": "_dna",
          "type": "uint256"
        }
      ],
      "name": "getAccessoriesType",
      "outputs": [
        {
          "internalType": "string",
          "name": "",
          "type": "string"
        }
      ],
      "stateMutability": "view",
      "type": "function",
      "constant": true
    },
    {
      "inputs": [
        {
          "internalType": "uint256",
          "name": "tokenId",
          "type": "uint256"
        }
      ],
      "name": "getApproved",
      "outputs": [
        {
          "internalType": "address",
          "name": "",
          "type": "address"
        }
      ],
      "stateMutability": "view",
      "type": "function",
      "constant": true
    },
    {
      "inputs": [
        {
          "internalType": "uint256",
          "name": "_dna",
          "type": "uint256"
        }
      ],
      "name": "getClotheColor",
      "outputs": [
        {
          "internalType": "string",
          "name": "",
          "type": "string"
        }
      ],
      "stateMutability": "view",
      "type": "function",
      "constant": true
    },
    {
      "inputs": [
        {
          "internalType": "uint256",
          "name": "_dna",
          "type": "uint256"
        }
      ],
      "name": "getClotheType",
      "outputs": [
        {
          "internalType": "string",
          "name": "",
          "type": "string"
        }
      ],
      "stateMutability": "view",
      "type": "function",
      "constant": true
    },
    {
      "inputs": [
        {
          "internalType": "uint256",
          "name": "_dna",
          "type": "uint256"
        }
      ],
      "name": "getEyeBrowType",
      "outputs": [
        {
          "internalType": "string",
          "name": "",
          "type": "string"
        }
      ],
      "stateMutability": "view",
      "type": "function",
      "constant": true
    },
    {
      "inputs": [
        {
          "internalType": "uint256",
          "name": "_dna",
          "type": "uint256"
        }
      ],
      "name": "getEyeType",
      "outputs": [
        {
          "internalType": "string",
          "name": "",
          "type": "string"
        }
      ],
      "stateMutability": "view",
      "type": "function",
      "constant": true
    },
    {
      "inputs": [
        {
          "internalType": "uint256",
          "name": "_dna",
          "type": "uint256"
        }
      ],
      "name": "getFacialHairColor",
      "outputs": [
        {
          "internalType": "string",
          "name": "",
          "type": "string"
        }
      ],
      "stateMutability": "view",
      "type": "function",
      "constant": true
    },
    {
      "inputs": [
        {
          "internalType": "uint256",
          "name": "_dna",
          "type": "uint256"
        }
      ],
      "name": "getFacialHairType",
      "outputs": [
        {
          "internalType": "string",
          "name": "",
          "type": "string"
        }
      ],
      "stateMutability": "view",
      "type": "function",
      "constant": true
    },
    {
      "inputs": [
        {
          "internalType": "uint256",
          "name": "_dna",
          "type": "uint256"
        }
      ],
      "name": "getGraphicType",
      "outputs": [
        {
          "internalType": "string",
          "name": "",
          "type": "string"
        }
      ],
      "stateMutability": "view",
      "type": "function",
      "constant": true
    },
    {
      "inputs": [
        {
          "internalType": "uint256",
          "name": "_dna",
          "type": "uint256"
        }
      ],
      "name": "getHairColor",
      "outputs": [
        {
          "internalType": "string",
          "name": "",
          "type": "string"
        }
      ],
      "stateMutability": "view",
      "type": "function",
      "constant": true
    },
    {
      "inputs": [
        {
          "internalType": "uint256",
          "name": "_dna",
          "type": "uint256"
        }
      ],
      "name": "getHatColor",
      "outputs": [
        {
          "internalType": "string",
          "name": "",
          "type": "string"
        }
      ],
      "stateMutability": "view",
      "type": "function",
      "constant": true
    },
    {
      "inputs": [
        {
          "internalType": "uint256",
          "name": "_dna",
          "type": "uint256"
        }
      ],
      "name": "getMouthType",
      "outputs": [
        {
          "internalType": "string",
          "name": "",
          "type": "string"
        }
      ],
      "stateMutability": "view",
      "type": "function",
      "constant": true
    },
    {
      "inputs": [
        {
          "internalType": "uint256",
          "name": "_dna",
          "type": "uint256"
        }
      ],
      "name": "getSkinColor",
      "outputs": [
        {
          "internalType": "string",
          "name": "",
          "type": "string"
        }
      ],
      "stateMutability": "view",
      "type": "function",
      "constant": true
    },
    {
      "inputs": [
        {
          "internalType": "uint256",
          "name": "_dna",
          "type": "uint256"
        }
      ],
      "name": "getTopType",
      "outputs": [
        {
          "internalType": "string",
          "name": "",
          "type": "string"
        }
      ],
      "stateMutability": "view",
      "type": "function",
      "constant": true
    },
    {
      "inputs": [
        {
          "internalType": "address",
          "name": "owner",
          "type": "address"
        },
        {
          "internalType": "address",
          "name": "operator",
          "type": "address"
        }
      ],
      "name": "isApprovedForAll",
      "outputs": [
        {
          "internalType": "bool",
          "name": "",
          "type": "bool"
        }
      ],
      "stateMutability": "view",
      "type": "function",
      "constant": true
    },
    {
      "inputs": [],
      "name": "maxSupply",
      "outputs": [
        {
          "internalType": "uint256",
          "name": "",
          "type": "uint256"
        }
      ],
      "stateMutability": "view",
      "type": "function",
      "constant": true
    },
    {
      "inputs": [],
      "name": "name",
      "outputs": [
        {
          "internalType": "string",
          "name": "",
          "type": "string"
        }
      ],
      "stateMutability": "view",
      "type": "function",
      "constant": true
    },
    {
      "inputs": [],
      "name": "owner",
      "outputs": [
        {
          "internalType": "address",
          "name": "",
          "type": "address"
        }
      ],
      "stateMutability": "view",
      "type": "function",
      "constant": true
    },
    {
      "inputs": [
        {
          "internalType": "uint256",
          "name": "tokenId",
          "type": "uint256"
        }
      ],
      "name": "ownerOf",
      "outputs": [
        {
          "internalType": "address",
          "name": "",
          "type": "address"
        }
      ],
      "stateMutability": "view",
      "type": "function",
      "constant": true
    },
    {
      "inputs": [],
      "name": "renounceOwnership",
      "outputs": [],
      "stateMutability": "nonpayable",
      "type": "function"
    },
    {
      "inputs": [
        {
          "internalType": "address",
          "name": "from",
          "type": "address"
        },
        {
          "internalType": "address",
          "name": "to",
          "type": "address"
        },
        {
          "internalType": "uint256",
          "name": "tokenId",
          "type": "uint256"
        }
      ],
      "name": "safeTransferFrom",
      "outputs": [],
      "stateMutability": "nonpayable",
      "type": "function"
    },
    {
      "inputs": [
        {
          "internalType": "address",
          "name": "from",
          "type": "address"
        },
        {
          "internalType": "address",
          "name": "to",
          "type": "address"
        },
        {
          "internalType": "uint256",
          "name": "tokenId",
          "type": "uint256"
        },
        {
          "internalType": "bytes",
          "name": "data",
          "type": "bytes"
        }
      ],
      "name": "safeTransferFrom",
      "outputs": [],
      "stateMutability": "nonpayable",
      "type": "function"
    },
    {
      "inputs": [
        {
          "internalType": "address",
          "name": "operator",
          "type": "address"
        },
        {
          "internalType": "bool",
          "name": "approved",
          "type": "bool"
        }
      ],
      "name": "setApprovalForAll",
      "outputs": [],
      "stateMutability": "nonpayable",
      "type": "function"
    },
    {
      "inputs": [],
      "name": "symbol",
      "outputs": [
        {
          "internalType": "string",
          "name": "",
          "type": "string"
        }
      ],
      "stateMutability": "view",
      "type": "function",
      "constant": true
    },
    {
      "inputs": [
        {
          "internalType": "uint256",
          "name": "index",
          "type": "uint256"
        }
      ],
      "name": "tokenByIndex",
      "outputs": [
        {
          "internalType": "uint256",
          "name": "",
          "type": "uint256"
        }
      ],
      "stateMutability": "view",
      "type": "function",
      "constant": true
    },
    {
      "inputs": [
        {
          "internalType": "uint256",
          "name": "",
          "type": "uint256"
        }
      ],
      "name": "tokenDNA",
      "outputs": [
        {
          "internalType": "uint256",
          "name": "",
          "type": "uint256"
        }
      ],
      "stateMutability": "view",
      "type": "function",
      "constant": true
    },
    {
      "inputs": [
        {
          "internalType": "address",
          "name": "owner",
          "type": "address"
        },
        {
          "internalType": "uint256",
          "name": "index",
          "type": "uint256"
        }
      ],
      "name": "tokenOfOwnerByIndex",
      "outputs": [
        {
          "internalType": "uint256",
          "name": "",
          "type": "uint256"
        }
      ],
      "stateMutability": "view",
      "type": "function",
      "constant": true
    },
    {
      "inputs": [],
      "name": "totalSupply",
      "outputs": [
        {
          "internalType": "uint256",
          "name": "",
          "type": "uint256"
        }
      ],
      "stateMutability": "view",
      "type": "function",
      "constant": true
    },
    {
      "inputs": [
        {
          "internalType": "address",
          "name": "from",
          "type": "address"
        },
        {
          "internalType": "address",
          "name": "to",
          "type": "address"
        },
        {
          "internalType": "uint256",
          "name": "tokenId",
          "type": "uint256"
        }
      ],
      "name": "transferFrom",
      "outputs": [],
      "stateMutability": "nonpayable",
      "type": "function"
    },
    {
      "inputs": [
        {
          "internalType": "address",
          "name": "newOwner",
          "type": "address"
        }
      ],
      "name": "transferOwnership",
      "outputs": [],
      "stateMutability": "nonpayable",
      "type": "function"
    },
    {
      "inputs": [],
      "name": "mint",
      "outputs": [],
      "stateMutability": "payable",
      "type": "function",
      "payable": true
    },
    {
      "inputs": [
        {
          "internalType": "uint256",
          "name": "_dna",
          "type": "uint256"
        }
      ],
      "name": "imageByDNA",
      "outputs": [
        {
          "internalType": "string",
          "name": "",
          "type": "string"
        }
      ],
      "stateMutability": "view",
      "type": "function",
      "constant": true
    },
    {
      "inputs": [
        {
          "internalType": "uint256",
          "name": "tokenId",
          "type": "uint256"
        }
      ],
      "name": "tokenURI",
      "outputs": [
        {
          "internalType": "string",
          "name": "",
          "type": "string"
        }
      ],
      "stateMutability": "view",
      "type": "function",
      "constant": true
    },
    {
      "inputs": [
        {
          "internalType": "bytes4",
          "name": "interfaceId",
          "type": "bytes4"
        }
      ],
      "name": "supportsInterface",
      "outputs": [
        {
          "internalType": "bool",
          "name": "",
          "type": "bool"
        }
      ],
      "stateMutability": "view",
      "type": "function",
      "constant": true
    }
  ],
  "bytecode": "0x600561016081815264426c616e6b60d81b61018052608090815260046101a09081526312dd5c9d60e21b6101c05260a052600e6101e08181526d507265736372697074696f6e303160901b6102005260c0526102209081526d283932b9b1b934b83a34b7b7181960911b6102405260e05261026091825264149bdd5b9960da1b6102805261010091909152600a6102a09081526953756e676c617373657360b01b6102c0526101205261032060405260096102e09081526857617966617265727360b81b6103005261014052620000db90600b90600762001887565b50604080516102208101825260056101e0820181815264426c61636b60d81b610200840152825282518084018452600680825265426c7565303160d01b60208381019190915280850192909252845180860186528181526521363ab2981960d11b81840152848601528451808601865281815265426c7565303360d01b818401526060850152845180860186528181526547726179303160d01b818401526080850152845180860186529081526523b930bc981960d11b8183015260a08401528351808501855260078152662432b0ba3432b960c91b8183015260c084015283518085018552600a81526950617374656c426c756560b01b8183015260e084015283518085018552600b81526a2830b9ba32b623b932b2b760a91b8183015261010084015283518085018552600c8082526b50617374656c4f72616e676560a01b8284015261012085019190915284518086018652600981526814185cdd195b14995960ba1b81840152610140850152845180860186528181526b50617374656c59656c6c6f7760a01b8184015261016085015284518086018652600481526350696e6b60e01b8184015261018085015284518086018652600381526214995960ea1b818401526101a0850152845180860190955291845264576869746560d81b908401526101c0820192909252620002d79190600f620018e4565b506040805161016081018252600b61012082019081526a109b185e995c94da1a5c9d60aa1b610140830152815281518083018352600d8082526c213630bd32b929bbb2b0ba32b960991b60208381019190915280840192909252835180850185528181526c21b7b63630b929bbb2b0ba32b960991b818401528385015283518085018552600c81526b11dc985c1a1a58d4da1a5c9d60a21b818401526060840152835180850185526006815265486f6f64696560d01b81840152608084015283518085018552600781526613dd995c985b1b60ca1b8184015260a0840152835180850185528181526c5368697274437265774e65636b60981b8184015260c084015283518085018552600e81526d536869727453636f6f704e65636b60901b8184015260e08401528351808501909452600a8452695368697274564e65636b60b01b9184019190915261010082019290925262000437919060096200192f565b5060405180610180016040528060405180604001604052806005815260200164436c6f736560d81b81525081526020016040518060400160405280600381526020016243727960e81b815250815260200160405180604001604052806007815260200166111959985d5b1d60ca1b81525081526020016040518060400160405280600581526020016444697a7a7960d81b815250815260200160405180604001604052806007815260200166115e59549bdb1b60ca1b815250815260200160405180604001604052806005815260200164486170707960d81b81525081526020016040518060400160405280600681526020016548656172747360d01b8152508152602001604051806040016040528060048152602001635369646560e01b81525081526020016040518060400160405280600681526020016514dc5d5a5b9d60d21b81525081526020016040518060400160405280600981526020016814dd5c9c1c9a5cd95960ba1b81525081526020016040518060400160405280600481526020016357696e6b60e01b81525081526020016040518060400160405280600981526020016857696e6b5761636b7960b81b815250815250600e90600c620006029291906200197a565b50604080516101c0810182526005610180820190815264416e67727960d81b6101a0830152815281518083018352600c8082526b105b99dc9e53985d1d5c985b60a21b60208381019190915280840192909252835180850185526007815266111959985d5b1d60ca1b818401528385015283518085018552600e8082526d111959985d5b1d13985d1d5c985b60921b82850152606085019190915284518086018652600b81526a119b185d13985d1d5c985b60aa1b81850152608085015284518086018652600d8082526c14985a5cd959115e18da5d1959609a1b8286015260a086019190915285518087018752601481527f526169736564457863697465644e61747572616c0000000000000000000000008186015260c0860152855180870187528381526b14d85910dbdb98d95c9b995960a21b8186015260e086015285518087018752601381527f536164436f6e6365726e65644e61747572616c0000000000000000000000000081860152610100860152855180870187529182526d155b9a589c9bddd3985d1d5c985b60921b828501526101208501919091528451808601865260068152652ab82237bbb760d11b81850152610140850152845180860190955284526c155c111bdddb93985d1d5c985b609a1b91840191909152610160820192909252620007f991600f91906200197a565b506040518061010001604052806040518060400160405280600681526020016520bab13ab93760d11b815250815260200160405180604001604052806005815260200164426c61636b60d81b815250815260200160405180604001604052806006815260200165426c6f6e646560d01b81525081526020016040518060400160405280600c81526020016b213637b73232a3b7b63232b760a11b815250815260200160405180604001604052806005815260200164213937bbb760d91b81525081526020016040518060400160405280600981526020016842726f776e4461726b60b81b815250815260200160405180604001604052806008815260200167506c6174696e756d60c01b81525081526020016040518060400160405280600381526020016214995960ea1b81525081525060109060086200093c929190620019c5565b506040805161010081018252600560c0820190815264426c616e6b60d81b60e0830152815281518083018352600b81526a42656172644d656469756d60a81b6020828101919091528083019190915282518084018452600a8152691099585c99131a59da1d60b21b818301528284015282518084018452600d81526c42656172644d6167657374696360981b81830152606083015282518084018452600e81526d4d6f7573746163686546616e637960901b8183015260808301528251808401909352600f83526e4d6f757374616368654d61676e756d60881b9083015260a081019190915262000a3290601190600662001a10565b506040805161018081018252600661014082018181526520bab13ab93760d11b610160840152825282518084018452600580825264426c61636b60d81b602083810191909152808501929092528451808601865292835265426c6f6e646560d01b838301528385019290925283518085018552600c81526b213637b73232a3b7b63232b760a11b8183015260608401528351808501855291825264213937bbb760d91b82820152608083019190915282518084018452600981526842726f776e4461726b60b81b8183015260a083015282518084018452600a8082526950617374656c50696e6b60b01b8284015260c0840191909152835180850185526008815267506c6174696e756d60c01b8184015260e084015283518085018552600381526214995960ea1b8184015261010084015283518085019094528084526953696c7665724772617960b01b9184019190915261012082019290925262000b9c916012919062001a5b565b50604080516102208101825260056101e0820181815264426c61636b60d81b610200840152825282518084018452600680825265426c7565303160d01b60208381019190915280850192909252845180860186528181526521363ab2981960d11b81840152848601528451808601865281815265426c7565303360d01b818401526060850152845180860186528181526547726179303160d01b818401526080850152845180860186529081526523b930bc981960d11b8183015260a08401528351808501855260078152662432b0ba3432b960c91b8183015260c084015283518085018552600a81526950617374656c426c756560b01b8183015260e084015283518085018552600b81526a2830b9ba32b623b932b2b760a91b8183015261010084015283518085018552600c8082526b50617374656c4f72616e676560a01b8284015261012085019190915284518086018652600981526814185cdd195b14995960ba1b81840152610140850152845180860186529081526b50617374656c59656c6c6f7760a01b8183015261016084015283518085018552600481526350696e6b60e01b8183015261018084015283518085018552600381526214995960ea1b818301526101a0840152835180850190945290835264576869746560d81b908301526101c081019190915262000d9a90601390600f620018e4565b50604080516101a081018252600361016082019081526210985d60ea1b61018083015281528151808301835260068082526543756d62696160d01b60208381019190915280840192909252835180850185526004808252632232b2b960e11b8285015284860191909152845180860186526007815266111a585b5bdb9960ca1b8185015260608501528451808601865281815263486f6c6160e01b8185015260808501528451808601865260058082526450697a7a6160d81b8286015260a0860191909152855180870187528381526514995cda5cdd60d21b8186015260c0860152855180870187529283526553656c656e6160d01b8385015260e085019290925284518086018652908152632132b0b960e11b8184015261010084015283518085018552600c81526b536b756c6c4f75746c696e6560a01b81840152610120840152835180850190945283526414dadd5b1b60da1b9083015261014081019190915262000f0d90601490600b62001aa6565b50604080516101c081018252600961018082018181526810dbdb98d95c9b995960ba1b6101a0840152825282518084018452600780825266111959985d5b1d60ca1b6020838101919091528085019290925284518086018652928352682234b9b132b634b2b360b91b838301528385019290925283518085018552600680825265456174696e6760d01b82840152606085019190915284518086018652838152664772696d61636560c81b81840152608085015284518086018652600381526214d85960ea1b8184015260a085015284518086018652600a81526929b1b932b0b6a7b832b760b11b8184015260c08501528451808601865283815266536572696f757360c81b8184015260e085015284518086018652600580825264536d696c6560d81b828501526101008601919091528551808701875291825265546f6e67756560d01b8284015261012085019190915284518086018652928352665477696e6b6c6560c81b83830152610140840192909252835180850190945290835264159bdb5a5d60da1b90830152610160810191909152620010b290601590600c6200197a565b506040805161012081018252600660e082018181526515185b9b995960d21b6101008401528252825180840184529081526559656c6c6f7760d01b6020828101919091528083019190915282518084018452600481526350616c6560e01b818301528284015282518084018452600580825264131a59da1d60da1b8284015260608401919091528351808501855281815264213937bbb760d91b8184015260808401528351808501855260098152682230b935a13937bbb760b91b8184015260a08401528351808501909452835264426c61636b60d81b9083015260c0810191909152620011a590601690600762001887565b50604080516104a08101825260066104608201818152652737a430b4b960d11b610480840152825282518084018452600881526708af2cae0c2e8c6d60c31b6020828101919091528084019190915283518085018552600381526212185d60ea1b81830152838501528351808501855260058152642434b530b160d91b81830152606084015283518085018552918252652a3ab93130b760d11b82820152608083019190915282518084018452600a8082526957696e7465724861743160b01b8284015260a084019190915283518085018552818152692bb4b73a32b92430ba1960b11b8184015260c0840152835180850185528181526957696e7465724861743360b01b8184015260e0840152835180850185529081526915da5b9d195c92185d0d60b21b8183015261010083015282518084018452600f8082526e2637b733a430b4b92134b3a430b4b960891b8284015261012084019190915283518085018552600b8082526a2637b733a430b4b92137b160a91b82850152610140850191909152845180860186528181526a2637b733a430b4b9213ab760a91b8185015261016085015284518086018652600d8082526c4c6f6e67486169724375726c7960981b82860152610180860191909152855180870187528181526c4c6f6e6748616972437572767960981b818601526101a086015285518087018752600e8082526d4c6f6e674861697244726561647360901b828701526101c0870191909152865180880188529182526c4c6f6e6748616972467269646160981b828601526101e0860191909152855180870187529182526a4c6f6e674861697246726f60a81b82850152610200850191909152845180860186529182526e131bdb99d2185a5c919c9bd0985b99608a1b82840152610220840191909152835180850185526012808252714c6f6e67486169724e6f74546f6f4c6f6e6760701b828501526102408501919091528451808601865260138082527f4c6f6e67486169725368617665645369646573000000000000000000000000008286015261026086019190915285518087018752828152714c6f6e67486169724d696157616c6c61636560701b818601526102808601528551808701875260108082526f131bdb99d2185a5c94dd1c985a59da1d60821b828701526102a0870191909152865180880188526011808252702637b733a430b4b929ba3930b4b3b43a1960791b828801526102c088019190915287518089018952601681527f4c6f6e67486169725374726169676874537472616e6400000000000000000000818801526102e0880152875180890189528181527053686f727448616972447265616473303160781b81880152610300880152875180890189529081527029b437b93a2430b4b9223932b0b239981960791b81870152610320870152865180880188529081526f53686f7274486169724672697a7a6c6560801b8186015261034086015285518087018752601581527f53686f7274486169725368616767794d756c6c6574000000000000000000000081860152610360860152855180870187528181527f53686f72744861697253686f72744375726c790000000000000000000000000081860152610380860152855180870187528281527114da1bdc9d12185a5c94da1bdc9d119b185d60721b818601526103a0860152855180870187528181527f53686f72744861697253686f7274526f756e6400000000000000000000000000818601526103c0860152855180870187529081527f53686f72744861697253686f7274576176656400000000000000000000000000818501526103e0850152845180860186529182526d53686f727448616972536964657360901b82840152610400840191909152835180850185529081527129b437b93a2430b4b92a3432a1b0b2b9b0b960711b818301526104208301528251808401909352601a83527f53686f7274486169725468654361657361725369646550617274000000000000908301526104408101919091526200177890601790602362001af1565b503480156200178657600080fd5b50604051620045fc380380620045fc833981016040819052620017a99162001bb6565b6040518060400160405280600b81526020016a506c61747a6950756e6b7360a81b81525060405180604001604052806005815260200164504c504b5360d81b8152508160009081620017fc919062001c75565b5060016200180b828262001c75565b50505062001828620018226200183160201b60201c565b62001835565b60195562001d41565b3390565b600a80546001600160a01b038381166001600160a01b0319831681179093556040519116919082907f8be0079c531659141344cd1fd0a4f28419497f9722a3daafe3b4186f6b6457e090600090a35050565b828054828255906000526020600020908101928215620018d2579160200282015b82811115620018d25782518290620018c1908262001c75565b5091602001919060010190620018a8565b50620018e092915062001b3c565b5090565b828054828255906000526020600020908101928215620018d2579160200282015b82811115620018d257825182906200191e908262001c75565b509160200191906001019062001905565b828054828255906000526020600020908101928215620018d2579160200282015b82811115620018d2578251829062001969908262001c75565b509160200191906001019062001950565b828054828255906000526020600020908101928215620018d2579160200282015b82811115620018d25782518290620019b4908262001c75565b50916020019190600101906200199b565b828054828255906000526020600020908101928215620018d2579160200282015b82811115620018d25782518290620019ff908262001c75565b5091602001919060010190620019e6565b828054828255906000526020600020908101928215620018d2579160200282015b82811115620018d2578251829062001a4a908262001c75565b509160200191906001019062001a31565b828054828255906000526020600020908101928215620018d2579160200282015b82811115620018d2578251829062001a95908262001c75565b509160200191906001019062001a7c565b828054828255906000526020600020908101928215620018d2579160200282015b82811115620018d2578251829062001ae0908262001c75565b509160200191906001019062001ac7565b828054828255906000526020600020908101928215620018d2579160200282015b82811115620018d2578251829062001b2b908262001c75565b509160200191906001019062001b12565b80821115620018e057600062001b53828262001b5d565b5060010162001b3c565b50805462001b6b9062001be6565b6000825580601f1062001b7c575050565b601f01602090049060005260206000209081019062001b9c919062001b9f565b50565b5b80821115620018e0576000815560010162001ba0565b60006020828403121562001bc957600080fd5b5051919050565b634e487b7160e01b600052604160045260246000fd5b600181811c9082168062001bfb57607f821691505b60208210810362001c1c57634e487b7160e01b600052602260045260246000fd5b50919050565b601f82111562001c7057600081815260208120601f850160051c8101602086101562001c4b5750805b601f850160051c820191505b8181101562001c6c5782815560010162001c57565b5050505b505050565b81516001600160401b0381111562001c915762001c9162001bd0565b62001ca98162001ca2845462001be6565b8462001c22565b602080601f83116001811462001ce1576000841562001cc85750858301515b600019600386901b1c1916600185901b17855562001c6c565b600085815260208120601f198616915b8281101562001d125788860151825594840194600190910190840162001cf1565b508582101562001d315787850151600019600388901b60f8161c191681555b5050505050600190811b01905550565b6128ab8062001d516000396000f3fe60806040526004361061021a5760003560e01c80637ecaef0611610123578063b88d4fde116100ab578063d5abeb011161006f578063d5abeb011461062c578063dac1419e14610642578063e2eced2814610662578063e985e9c514610682578063f2fde38b146106cb57600080fd5b8063b88d4fde1461057f578063be65d7511461059f578063c0496cf5146105cc578063c87b56dd146105ec578063cc4e56951461060c57600080fd5b80638da5cb5b116100f25780638da5cb5b146104ec57806395d89b411461050a578063a22cb4651461051f578063a2ec3e9e1461053f578063b70930de1461055f57600080fd5b80637ecaef061461046c57806384425a841461048c5780638602dd6a146104ac57806388ee2c16146104cc57600080fd5b80632f745c59116101a657806360d58aed1161017557806360d58aed146103d75780636352211e146103f757806370a0823114610417578063715018a61461043757806373075aff1461044c57600080fd5b80632f745c5914610357578063425d784f1461037757806342842e0e146103975780634f6ccce7146103b757600080fd5b8063095ea7b3116101ed578063095ea7b3146102ce5780631249c58b146102f057806318160ddd146102f857806318a3c0d11461031757806323b872dd1461033757600080fd5b806301ffc9a71461021f578063039984ba1461025457806306fdde0314610281578063081812fc14610296575b600080fd5b34801561022b57600080fd5b5061023f61023a366004611e72565b6106eb565b60405190151581526020015b60405180910390f35b34801561026057600080fd5b5061027461026f366004611e8f565b6106fc565b60405161024b9190611ef8565b34801561028d57600080fd5b506102746107cd565b3480156102a257600080fd5b506102b66102b1366004611e8f565b61085f565b6040516001600160a01b03909116815260200161024b565b3480156102da57600080fd5b506102ee6102e9366004611f27565b610886565b005b6102ee6109a0565b34801561030457600080fd5b506008545b60405190815260200161024b565b34801561032357600080fd5b50610274610332366004611e8f565b610b19565b34801561034357600080fd5b506102ee610352366004611f51565b610b3f565b34801561036357600080fd5b50610309610372366004611f27565b610b70565b34801561038357600080fd5b50610274610392366004611e8f565b610c06565b3480156103a357600080fd5b506102ee6103b2366004611f51565b610c2c565b3480156103c357600080fd5b506103096103d2366004611e8f565b610c47565b3480156103e357600080fd5b506102746103f2366004611e8f565b610cda565b34801561040357600080fd5b506102b6610412366004611e8f565b610d00565b34801561042357600080fd5b50610309610432366004611f8d565b610d60565b34801561044357600080fd5b506102ee610de6565b34801561045857600080fd5b50610274610467366004611e8f565b610df8565b34801561047857600080fd5b50610274610487366004611e8f565b610e1e565b34801561049857600080fd5b506102746104a7366004611e8f565b610e42565b3480156104b857600080fd5b506102746104c7366004611e8f565b610e68565b3480156104d857600080fd5b506103096104e7366004611fa8565b610e8e565b3480156104f857600080fd5b50600a546001600160a01b03166102b6565b34801561051657600080fd5b50610274610edc565b34801561052b57600080fd5b506102ee61053a366004611fd4565b610eeb565b34801561054b57600080fd5b5061027461055a366004611e8f565b610efa565b34801561056b57600080fd5b5061027461057a366004611e8f565b610f20565b34801561058b57600080fd5b506102ee61059a366004612026565b610f46565b3480156105ab57600080fd5b506103096105ba366004611e8f565b601a6020526000908152604090205481565b3480156105d857600080fd5b506102746105e7366004611e8f565b610f7e565b3480156105f857600080fd5b50610274610607366004611e8f565b610fa2565b34801561061857600080fd5b50610274610627366004611e8f565b611090565b34801561063857600080fd5b5061030960195481565b34801561064e57600080fd5b5061027461065d366004611e8f565b6110b6565b34801561066e57600080fd5b5061027461067d366004611e8f565b6110dc565b34801561068e57600080fd5b5061023f61069d366004612102565b6001600160a01b03918216600090815260056020908152604080832093909416825291909152205460ff1690565b3480156106d757600080fd5b506102ee6106e6366004611f8d565b61114c565b60006106f6826111c5565b92915050565b6060600061070b8360086111ea565b60ff169050600f8080549050826107229190612142565b8154811061073257610732612156565b9060005260206000200180546107479061216c565b80601f01602080910402602001604051908101604052809291908181526020018280546107739061216c565b80156107c05780601f10610795576101008083540402835291602001916107c0565b820191906000526020600020905b8154815290600101906020018083116107a357829003601f168201915b5050505050915050919050565b6060600080546107dc9061216c565b80601f01602080910402602001604051908101604052809291908181526020018280546108089061216c565b80156108555780601f1061082a57610100808354040283529160200191610855565b820191906000526020600020905b81548152906001019060200180831161083857829003601f168201915b5050505050905090565b600061086a8261123e565b506000908152600460205260409020546001600160a01b031690565b600061089182610d00565b9050806001600160a01b0316836001600160a01b0316036109035760405162461bcd60e51b815260206004820152602160248201527f4552433732313a20617070726f76616c20746f2063757272656e74206f776e656044820152603960f91b60648201526084015b60405180910390fd5b336001600160a01b038216148061091f575061091f813361069d565b6109915760405162461bcd60e51b815260206004820152603e60248201527f4552433732313a20617070726f76652063616c6c6572206973206e6f7420746f60448201527f6b656e206f776e6572206e6f7220617070726f76656420666f7220616c6c000060648201526084016108fa565b61099b838361129d565b505050565b66b1a2bc2ec50000341015610a145760405162461bcd60e51b815260206004820152603460248201527f546f206d696e74206120506c61747a6950756e6b20796f75207265717569726560448201527320746f2073656e6420302e30352065746865727360601b60648201526084016108fa565b60195460185410610a8d5760405162461bcd60e51b815260206004820152603b60248201527f43616e6e6f74206d696e74206d6f726520506c61747a6950756e6b732062656360448201527f617573652069742065786365646564206d617820737570706c792e000000000060648201526084016108fa565b600a546040516001600160a01b03909116903480156108fc02916000818181858888f19350505050158015610ac6573d6000803e3d6000fd5b50610ad9610ad360185490565b33610e8e565b601a6000610ae660185490565b8152602081019190915260400160002055610b0933610b0460185490565b61130b565b610b17601880546001019055565b565b60606000610b288360046111ea565b60ff169050600d8080549050826107229190612142565b610b493382611325565b610b655760405162461bcd60e51b81526004016108fa906121a6565b61099b8383836113a4565b6000610b7b83610d60565b8210610bdd5760405162461bcd60e51b815260206004820152602b60248201527f455243373231456e756d657261626c653a206f776e657220696e646578206f7560448201526a74206f6620626f756e647360a81b60648201526084016108fa565b506001600160a01b03919091166000908152600660209081526040808320938352929052205490565b60606000610c158360146111ea565b60ff16905060158080549050826107229190612142565b61099b83838360405180602001604052806000815250610f46565b6000610c5260085490565b8210610cb55760405162461bcd60e51b815260206004820152602c60248201527f455243373231456e756d657261626c653a20676c6f62616c20696e646578206f60448201526b7574206f6620626f756e647360a01b60648201526084016108fa565b60088281548110610cc857610cc8612156565b90600052602060002001549050919050565b60606000610ce98360186111ea565b60ff16905060178080549050826107229190612142565b6000818152600260205260408120546001600160a01b0316806106f65760405162461bcd60e51b8152602060048201526018602482015277115490cdcc8c4e881a5b9d985b1a59081d1bdad95b88125160421b60448201526064016108fa565b60006001600160a01b038216610dca5760405162461bcd60e51b815260206004820152602960248201527f4552433732313a2061646472657373207a65726f206973206e6f7420612076616044820152683634b21037bbb732b960b91b60648201526084016108fa565b506001600160a01b031660009081526003602052604090205490565b610dee61154b565b610b1760006115a5565b60606000610e078360166111ea565b60ff16905060168080549050826107229190612142565b60606000610e2d8360006111ea565b600b8054919250906107229060ff8416612142565b60606000610e518360066111ea565b60ff169050600e8080549050826107229190612142565b60606000610e778360126111ea565b60ff16905060148080549050826107229190612142565b600080610ea46001600160a01b0384168561220a565b9050600081604051602001610ebb91815260200190565b60408051808303601f19018152919052805160209091012095945050505050565b6060600180546107dc9061216c565b610ef63383836115f7565b5050565b60606000610f098360106111ea565b60ff16905060138080549050826107229190612142565b60606000610f2f83600e6111ea565b60ff16905060128080549050826107229190612142565b610f503383611325565b610f6c5760405162461bcd60e51b81526004016108fa906121a6565b610f78848484846116c5565b50505050565b60606000610f8d8360026111ea565b600c8054919250906107229060ff8416612142565b6000818152600260205260409020546060906001600160a01b03166110235760405162461bcd60e51b815260206004820152603160248201527f455243373231204d657461646174613a2055524920717565727920666f72206e60448201527037b732bc34b9ba32b73a103a37b5b2b71760791b60648201526084016108fa565b6000828152601a6020526040812054611066908490611041906110dc565b604051602001611052929190612239565b6040516020818303038152906040526116f8565b905080604051602001611079919061232a565b604051602081830303815290604052915050919050565b6060600061109f83600a6111ea565b60ff16905060108080549050826107229190612142565b606060006110c583600c6111ea565b60ff16905060118080549050826107229190612142565b6060600061111260408051808201909152601581527468747470733a2f2f6176617461616172732e696f2f60581b602082015290565b9050600061111f8461185f565b9050818160405160200161113492919061236f565b60405160208183030381529060405292505050919050565b61115461154b565b6001600160a01b0381166111b95760405162461bcd60e51b815260206004820152602660248201527f4f776e61626c653a206e6577206f776e657220697320746865207a65726f206160448201526564647265737360d01b60648201526084016108fa565b6111c2816115a5565b50565b60006001600160e01b0319821663780e9d6360e01b14806106f657506106f682611937565b60006111f782600a61248f565b61120290600161249e565b61120d6002846124bd565b61121890600a61248f565b61122390600161249e565b61122d9085612142565b61123791906124d6565b9392505050565b6000818152600260205260409020546001600160a01b03166111c25760405162461bcd60e51b8152602060048201526018602482015277115490cdcc8c4e881a5b9d985b1a59081d1bdad95b88125160421b60448201526064016108fa565b600081815260046020526040902080546001600160a01b0319166001600160a01b03841690811790915581906112d282610d00565b6001600160a01b03167f8c5be1e5ebec7d5bd14f71427d1e84f3dd0314c0f7b2291e5b200ac8c7c3b92560405160405180910390a45050565b610ef6828260405180602001604052806000815250611987565b60008061133183610d00565b9050806001600160a01b0316846001600160a01b0316148061137857506001600160a01b0380821660009081526005602090815260408083209388168352929052205460ff165b8061139c5750836001600160a01b03166113918461085f565b6001600160a01b0316145b949350505050565b826001600160a01b03166113b782610d00565b6001600160a01b03161461141b5760405162461bcd60e51b815260206004820152602560248201527f4552433732313a207472616e736665722066726f6d20696e636f72726563742060448201526437bbb732b960d91b60648201526084016108fa565b6001600160a01b03821661147d5760405162461bcd60e51b8152602060048201526024808201527f4552433732313a207472616e7366657220746f20746865207a65726f206164646044820152637265737360e01b60648201526084016108fa565b6114888383836119ba565b61149360008261129d565b6001600160a01b03831660009081526003602052604081208054600192906114bc9084906124ea565b90915550506001600160a01b03821660009081526003602052604081208054600192906114ea90849061220a565b909155505060008181526002602052604080822080546001600160a01b0319166001600160a01b0386811691821790925591518493918716917fddf252ad1be2c89b69c2b068fc378daa952ba7f163c4a11628f55a4df523b3ef91a4505050565b600a546001600160a01b03163314610b175760405162461bcd60e51b815260206004820181905260248201527f4f776e61626c653a2063616c6c6572206973206e6f7420746865206f776e657260448201526064016108fa565b600a80546001600160a01b038381166001600160a01b0319831681179093556040519116919082907f8be0079c531659141344cd1fd0a4f28419497f9722a3daafe3b4186f6b6457e090600090a35050565b816001600160a01b0316836001600160a01b0316036116585760405162461bcd60e51b815260206004820152601960248201527f4552433732313a20617070726f766520746f2063616c6c65720000000000000060448201526064016108fa565b6001600160a01b03838116600081815260056020908152604080832094871680845294825291829020805460ff191686151590811790915591519182527f17307eab39ab6107e8899845ad3d59bd9653f200f220920489ca2b5937696c31910160405180910390a3505050565b6116d08484846113a4565b6116dc848484846119c5565b610f785760405162461bcd60e51b81526004016108fa906124fd565b6060815160000361171757505060408051602081019091526000815290565b60006040518060600160405280604081526020016128366040913990506000600384516002611746919061220a565b61175091906124d6565b61175b90600461249e565b9050600061176a82602061220a565b67ffffffffffffffff81111561178257611782612010565b6040519080825280601f01601f1916602001820160405280156117ac576020820181803683370190505b509050818152600183018586518101602084015b8183101561181a5760039283018051603f601282901c811687015160f890811b8552600c83901c8216880151811b6001860152600683901c8216880151811b60028601529116860151901b938201939093526004016117c0565b600389510660018114611834576002811461184557611851565b613d3d60f01b600119830152611851565b603d60f81b6000198301525b509398975050505050505050565b60608061186b83610e1e565b61187484610f7e565b61187d85610b19565b61188686610e42565b61188f876106fc565b61189888611090565b6118a1896110b6565b6040516020016118b7979695949392919061254f565b6040516020818303038152906040529050806118d284610f20565b6118db85610efa565b6118e486610e68565b6118ed87610c06565b6118f688610df8565b60405160200161190b9695949392919061269f565b60405160208183030381529060405290508061192684610cda565b604051602001611079929190612781565b60006001600160e01b031982166380ac58cd60e01b148061196857506001600160e01b03198216635b5e139f60e01b145b806106f657506301ffc9a760e01b6001600160e01b03198316146106f6565b6119918383611ac6565b61199e60008484846119c5565b61099b5760405162461bcd60e51b81526004016108fa906124fd565b61099b838383611c14565b60006001600160a01b0384163b15611abb57604051630a85bd0160e11b81526001600160a01b0385169063150b7a0290611a099033908990889088906004016127c5565b6020604051808303816000875af1925050508015611a44575060408051601f3d908101601f19168201909252611a4191810190612802565b60015b611aa1573d808015611a72576040519150601f19603f3d011682016040523d82523d6000602084013e611a77565b606091505b508051600003611a995760405162461bcd60e51b81526004016108fa906124fd565b805181602001fd5b6001600160e01b031916630a85bd0160e11b14905061139c565b506001949350505050565b6001600160a01b038216611b1c5760405162461bcd60e51b815260206004820181905260248201527f4552433732313a206d696e7420746f20746865207a65726f206164647265737360448201526064016108fa565b6000818152600260205260409020546001600160a01b031615611b815760405162461bcd60e51b815260206004820152601c60248201527f4552433732313a20746f6b656e20616c7265616479206d696e7465640000000060448201526064016108fa565b611b8d600083836119ba565b6001600160a01b0382166000908152600360205260408120805460019290611bb690849061220a565b909155505060008181526002602052604080822080546001600160a01b0319166001600160a01b03861690811790915590518392907fddf252ad1be2c89b69c2b068fc378daa952ba7f163c4a11628f55a4df523b3ef908290a45050565b6001600160a01b038316611c6f57611c6a81600880546000838152600960205260408120829055600182018355919091527ff3f7a9fe364faab93b216da50a3214154f22a0a2b415b23a84c8169e8b636ee30155565b611c92565b816001600160a01b0316836001600160a01b031614611c9257611c928382611ccc565b6001600160a01b038216611ca95761099b81611d69565b826001600160a01b0316826001600160a01b03161461099b5761099b8282611e18565b60006001611cd984610d60565b611ce391906124ea565b600083815260076020526040902054909150808214611d36576001600160a01b03841660009081526006602090815260408083208584528252808320548484528184208190558352600790915290208190555b5060009182526007602090815260408084208490556001600160a01b039094168352600681528383209183525290812055565b600854600090611d7b906001906124ea565b60008381526009602052604081205460088054939450909284908110611da357611da3612156565b906000526020600020015490508060088381548110611dc457611dc4612156565b6000918252602080832090910192909255828152600990915260408082208490558582528120556008805480611dfc57611dfc61281f565b6001900381819060005260206000200160009055905550505050565b6000611e2383610d60565b6001600160a01b039093166000908152600660209081526040808320868452825280832085905593825260079052919091209190915550565b6001600160e01b0319811681146111c257600080fd5b600060208284031215611e8457600080fd5b813561123781611e5c565b600060208284031215611ea157600080fd5b5035919050565b60005b83811015611ec3578181015183820152602001611eab565b50506000910152565b60008151808452611ee4816020860160208601611ea8565b601f01601f19169290920160200192915050565b6020815260006112376020830184611ecc565b80356001600160a01b0381168114611f2257600080fd5b919050565b60008060408385031215611f3a57600080fd5b611f4383611f0b565b946020939093013593505050565b600080600060608486031215611f6657600080fd5b611f6f84611f0b565b9250611f7d60208501611f0b565b9150604084013590509250925092565b600060208284031215611f9f57600080fd5b61123782611f0b565b60008060408385031215611fbb57600080fd5b82359150611fcb60208401611f0b565b90509250929050565b60008060408385031215611fe757600080fd5b611ff083611f0b565b91506020830135801515811461200557600080fd5b809150509250929050565b634e487b7160e01b600052604160045260246000fd5b6000806000806080858703121561203c57600080fd5b61204585611f0b565b935061205360208601611f0b565b925060408501359150606085013567ffffffffffffffff8082111561207757600080fd5b818701915087601f83011261208b57600080fd5b81358181111561209d5761209d612010565b604051601f8201601f19908116603f011681019083821181831017156120c5576120c5612010565b816040528281528a60208487010111156120de57600080fd5b82602086016020830137600060208483010152809550505050505092959194509250565b6000806040838503121561211557600080fd5b61211e83611f0b565b9150611fcb60208401611f0b565b634e487b7160e01b600052601260045260246000fd5b6000826121515761215161212c565b500690565b634e487b7160e01b600052603260045260246000fd5b600181811c9082168061218057607f821691505b6020821081036121a057634e487b7160e01b600052602260045260246000fd5b50919050565b6020808252602e908201527f4552433732313a2063616c6c6572206973206e6f7420746f6b656e206f776e6560408201526d1c881b9bdc88185c1c1c9bdd995960921b606082015260800190565b634e487b7160e01b600052601160045260246000fd5b808201808211156106f6576106f66121f4565b6000815161222f818560208601611ea8565b9290920192915050565b7f7b20226e616d65223a2022506c61747a6950756e6b732023000000000000000081528260188201527f2c20226465736372697074696f6e223a2022506c61747a692050756e6b73206160388201527f72652072616e646f6d697a6564204176617461616172732073746f726564206f60588201527f6e20636861696e20746f207465616368204441707020646576656c6f706d656e60788201527f74206f6e20506c61747a69222c2022696d616765223a2022000000000000000060988201526000825161230f8160b0850160208701611ea8565b6222207d60e81b60b093909101928301525060b30192915050565b7f646174613a6170706c69636174696f6e2f6a736f6e3b6261736536342c00000081526000825161236281601d850160208701611ea8565b91909101601d0192915050565b60008351612381818460208801611ea8565b603f60f81b908301908152835161239f816001840160208801611ea8565b01600101949350505050565b600181815b808511156123e65781600019048211156123cc576123cc6121f4565b808516156123d957918102915b93841c93908002906123b0565b509250929050565b6000826123fd575060016106f6565b8161240a575060006106f6565b8160018114612420576002811461242a57612446565b60019150506106f6565b60ff84111561243b5761243b6121f4565b50506001821b6106f6565b5060208310610133831016604e8410600b8410161715612469575081810a6106f6565b61247383836123ab565b8060001904821115612487576124876121f4565b029392505050565b600061123760ff8416836123ee565b60008160001904831182151516156124b8576124b86121f4565b500290565b60ff81811683821601908111156106f6576106f66121f4565b6000826124e5576124e561212c565b500490565b818103818111156106f6576106f66121f4565b60208082526032908201527f4552433732313a207472616e7366657220746f206e6f6e20455243373231526560408201527131b2b4bb32b91034b6b83632b6b2b73a32b960711b606082015260800190565b6f6163636573736f72696573547970653d60801b81526000885161257a816010850160208d01611ea8565b6c26636c6f746865436f6c6f723d60981b60109184019182015288516125a781601d840160208d01611ea8565b6b26636c6f746865547970653d60a01b601d929091019182015287516125d4816029840160208c01611ea8565b6826657965547970653d60b81b6029929091019182015286516125fe816032840160208b01611ea8565b6c2665796562726f77547970653d60981b6032929091019182015261269161267a612674612658612652612635603f87018c61221d565b702666616369616c48616972436f6c6f723d60781b815260110190565b8961221d565b6f2666616369616c48616972547970653d60801b815260100190565b8661221d565b6a2668616972436f6c6f723d60a81b8152600b0190565b9a9950505050505050505050565b6000875160206126b28285838d01611ea8565b8851918401916126c58184848d01611ea8565b6926686174436f6c6f723d60b01b920191825287516126ea81600a8501848c01611ea8565b6c2667726170686963547970653d60981b600a939091019283015286516127178160178501848b01611ea8565b6a266d6f757468547970653d60a81b6017939091019283015285516127428160228501848a01611ea8565b6a26736b696e436f6c6f723d60a81b60229390910192830152845161276d81602d8501848901611ea8565b91909101602d019998505050505050505050565b60008351612793818460208801611ea8565b6826746f70547970653d60b81b90830190815283516127b9816009840160208801611ea8565b01600901949350505050565b6001600160a01b03858116825284166020820152604081018390526080606082018190526000906127f890830184611ecc565b9695505050505050565b60006020828403121561281457600080fd5b815161123781611e5c565b634e487b7160e01b600052603160045260246000fdfe4142434445464748494a4b4c4d4e4f505152535455565758595a6162636465666768696a6b6c6d6e6f707172737475767778797a303132333435363738392b2fa2646970667358221220159bce87cfdfe119e63edc30e81f73ad03e7c4865a1e9f5225d10d794312c08764736f6c63430008100033",
  "immutableReferences": {},
  "source": "// SPDX-License-Identifier: MIT\npragma solidity ^0.8.0;\n\nimport \"@openzeppelin/contracts/token/ERC721/ERC721.sol\";\nimport \"@openzeppelin/contracts/token/ERC721/extensions/ERC721Enumerable.sol\";\nimport \"@openzeppelin/contracts/utils/Counters.sol\";\nimport \"@openzeppelin/contracts/access/Ownable.sol\";\nimport \"./Base64.sol\";\nimport \"./PlatziPunksDNA.sol\";\n\n\ncontract PlatziPunks is ERC721, ERC721Enumerable, Ownable, PlatziPunksDNA {\n  using Counters for Counters.Counter;\n  Counters.Counter private _idCounter;\n  uint256 public maxSupply;\n  mapping (uint256 => uint256) public tokenDNA;\n\n  constructor(uint256 _maxSupply) ERC721(\"PlatziPunks\", \"PLPKS\") {\n    maxSupply = _maxSupply;\n  }\n\n  function mint() public payable {\n    require( msg.value >= 0.05 ether, \"To mint a PlatziPunk you require to send 0.05 ethers\" );\n    require( _idCounter.current() < maxSupply, \"Cannot mint more PlatziPunks because it exceded max supply.\");\n\n    payable(owner()).transfer(msg.value);\n    \n    tokenDNA[_idCounter.current()] = deterministicPseudoRandomDNA(_idCounter.current(), msg.sender);\n    \n    _safeMint(msg.sender, _idCounter.current());\n    \n    _idCounter.increment();\n  }\n\n  function _baseURI() internal pure override returns (string memory) {\n    return \"https://avataaars.io/\";\n  }\n\n  function _paramsURI(uint256 _dna) internal view returns (string memory) {\n    string memory params;\n\n     {\n            params = string(\n                abi.encodePacked(\n                    \"accessoriesType=\",\n                    getAccessoriesType(_dna),\n                    \"&clotheColor=\",\n                    getClotheColor(_dna),\n                    \"&clotheType=\",\n                    getClotheType(_dna),\n                    \"&eyeType=\",\n                    getEyeType(_dna),\n                    \"&eyebrowType=\",\n                    getEyeBrowType(_dna),\n                    \"&facialHairColor=\",\n                    getFacialHairColor(_dna),\n                    \"&facialHairType=\",\n                    getFacialHairType(_dna),\n                    \"&hairColor=\"\n                )\n            );\n        }\n\n        {\n          params = string(\n            abi.encodePacked(\n                params,\n                getHairColor(_dna),\n                \"&hatColor=\",\n                getHatColor(_dna),\n                \"&graphicType=\",\n                getGraphicType(_dna),\n                \"&mouthType=\",\n                getMouthType(_dna),\n                \"&skinColor=\",\n                getSkinColor(_dna)\n            )\n          );\n        }\n    \n    return string(abi.encodePacked(params, \"&topType=\", getTopType(_dna)));\n  }\n\n  function imageByDNA(uint256 _dna) public view returns (string memory) {\n    string memory baseURI = _baseURI();\n    string memory paramsURI = _paramsURI(_dna);\n\n    return string(abi.encodePacked(baseURI, \"?\", paramsURI));\n  }\n\n  function tokenURI(uint256 tokenId) public view override returns( string memory ) {\n    require(_exists(tokenId), \"ERC721 Metadata: URI query for nonexistent token.\");\n\n    string memory jsonURI = Base64.encode(abi.encodePacked(\n      '{ \"name\": \"PlatziPunks #',\n      tokenId,\n      ', \"description\": \"Platzi Punks are randomized Avataaars stored on chain to teach DApp development on Platzi\", \"image\": \"',\n      imageByDNA(tokenDNA[tokenId]),\n      '\" }'\n    ));\n\n    return string(abi.encodePacked(\"data:application/json;base64,\", jsonURI));\n  }\n\n  // The following functions are overrides required by Solidity.\n\n  function _beforeTokenTransfer(address from, address to, uint256 tokenId)\n      internal\n      override(ERC721, ERC721Enumerable)\n  {\n      super._beforeTokenTransfer(from, to, tokenId);\n  }\n\n  function supportsInterface(bytes4 interfaceId)\n      public\n      view\n      override(ERC721, ERC721Enumerable)\n      returns (bool)\n  {\n      return super.supportsInterface(interfaceId);\n  }\n}",
  "sourcePath": "/Users/rolilink/Dev/web3/platzi-punks/contracts/PlatziPunks.sol",
  "compiler": {
    "name": "solc",
    "version": "0.8.16+commit.07a7930e.Emscripten.clang"
  },
  "schemaVersion": "3.4.9",
  "updatedAt": "2022-09-01T21:56:03.591Z",
  "networkType": "ethereum",
  "devdoc": {
    "kind": "dev",
    "methods": {
      "approve(address,uint256)": {
        "details": "See {IERC721-approve}."
      },
      "balanceOf(address)": {
        "details": "See {IERC721-balanceOf}."
      },
      "getApproved(uint256)": {
        "details": "See {IERC721-getApproved}."
      },
      "isApprovedForAll(address,address)": {
        "details": "See {IERC721-isApprovedForAll}."
      },
      "name()": {
        "details": "See {IERC721Metadata-name}."
      },
      "owner()": {
        "details": "Returns the address of the current owner."
      },
      "ownerOf(uint256)": {
        "details": "See {IERC721-ownerOf}."
      },
      "renounceOwnership()": {
        "details": "Leaves the contract without owner. It will not be possible to call `onlyOwner` functions anymore. Can only be called by the current owner. NOTE: Renouncing ownership will leave the contract without an owner, thereby removing any functionality that is only available to the owner."
      },
      "safeTransferFrom(address,address,uint256)": {
        "details": "See {IERC721-safeTransferFrom}."
      },
      "safeTransferFrom(address,address,uint256,bytes)": {
        "details": "See {IERC721-safeTransferFrom}."
      },
      "setApprovalForAll(address,bool)": {
        "details": "See {IERC721-setApprovalForAll}."
      },
      "symbol()": {
        "details": "See {IERC721Metadata-symbol}."
      },
      "tokenByIndex(uint256)": {
        "details": "See {IERC721Enumerable-tokenByIndex}."
      },
      "tokenOfOwnerByIndex(address,uint256)": {
        "details": "See {IERC721Enumerable-tokenOfOwnerByIndex}."
      },
      "tokenURI(uint256)": {
        "details": "See {IERC721Metadata-tokenURI}."
      },
      "totalSupply()": {
        "details": "See {IERC721Enumerable-totalSupply}."
      },
      "transferFrom(address,address,uint256)": {
        "details": "See {IERC721-transferFrom}."
      },
      "transferOwnership(address)": {
        "details": "Transfers ownership of the contract to a new account (`newOwner`). Can only be called by the current owner."
      }
    },
    "version": 1
  },
  "userdoc": {
    "kind": "user",
    "methods": {},
    "version": 1
  }
}