{
  "contractName": "PlatziPunksDNA",
  "abi": [
    {
      "inputs": [
        {
          "internalType": "uint256",
          "name": "_tokenId",
          "type": "uint256"
        },
        {
          "internalType": "address",
          "name": "_minter",
          "type": "address"
        }
      ],
      "name": "deterministicPseudoRandomDNA",
      "outputs": [
        {
          "internalType": "uint256",
          "name": "",
          "type": "uint256"
        }
      ],
      "stateMutability": "pure",
      "type": "function"
    },
    {
      "inputs": [
        {
          "internalType": "uint256",
          "name": "_dna",
          "type": "uint256"
        }
      ],
      "name": "getAccessoriesType",
      "outputs": [
        {
          "internalType": "string",
          "name": "",
          "type": "string"
        }
      ],
      "stateMutability": "view",
      "type": "function"
    },
    {
      "inputs": [
        {
          "internalType": "uint256",
          "name": "_dna",
          "type": "uint256"
        }
      ],
      "name": "getClotheColor",
      "outputs": [
        {
          "internalType": "string",
          "name": "",
          "type": "string"
        }
      ],
      "stateMutability": "view",
      "type": "function"
    },
    {
      "inputs": [
        {
          "internalType": "uint256",
          "name": "_dna",
          "type": "uint256"
        }
      ],
      "name": "getClotheType",
      "outputs": [
        {
          "internalType": "string",
          "name": "",
          "type": "string"
        }
      ],
      "stateMutability": "view",
      "type": "function"
    },
    {
      "inputs": [
        {
          "internalType": "uint256",
          "name": "_dna",
          "type": "uint256"
        }
      ],
      "name": "getEyeType",
      "outputs": [
        {
          "internalType": "string",
          "name": "",
          "type": "string"
        }
      ],
      "stateMutability": "view",
      "type": "function"
    },
    {
      "inputs": [
        {
          "internalType": "uint256",
          "name": "_dna",
          "type": "uint256"
        }
      ],
      "name": "getEyeBrowType",
      "outputs": [
        {
          "internalType": "string",
          "name": "",
          "type": "string"
        }
      ],
      "stateMutability": "view",
      "type": "function"
    },
    {
      "inputs": [
        {
          "internalType": "uint256",
          "name": "_dna",
          "type": "uint256"
        }
      ],
      "name": "getFacialHairColor",
      "outputs": [
        {
          "internalType": "string",
          "name": "",
          "type": "string"
        }
      ],
      "stateMutability": "view",
      "type": "function"
    },
    {
      "inputs": [
        {
          "internalType": "uint256",
          "name": "_dna",
          "type": "uint256"
        }
      ],
      "name": "getFacialHairType",
      "outputs": [
        {
          "internalType": "string",
          "name": "",
          "type": "string"
        }
      ],
      "stateMutability": "view",
      "type": "function"
    },
    {
      "inputs": [
        {
          "internalType": "uint256",
          "name": "_dna",
          "type": "uint256"
        }
      ],
      "name": "getHairColor",
      "outputs": [
        {
          "internalType": "string",
          "name": "",
          "type": "string"
        }
      ],
      "stateMutability": "view",
      "type": "function"
    },
    {
      "inputs": [
        {
          "internalType": "uint256",
          "name": "_dna",
          "type": "uint256"
        }
      ],
      "name": "getHatColor",
      "outputs": [
        {
          "internalType": "string",
          "name": "",
          "type": "string"
        }
      ],
      "stateMutability": "view",
      "type": "function"
    },
    {
      "inputs": [
        {
          "internalType": "uint256",
          "name": "_dna",
          "type": "uint256"
        }
      ],
      "name": "getGraphicType",
      "outputs": [
        {
          "internalType": "string",
          "name": "",
          "type": "string"
        }
      ],
      "stateMutability": "view",
      "type": "function"
    },
    {
      "inputs": [
        {
          "internalType": "uint256",
          "name": "_dna",
          "type": "uint256"
        }
      ],
      "name": "getMouthType",
      "outputs": [
        {
          "internalType": "string",
          "name": "",
          "type": "string"
        }
      ],
      "stateMutability": "view",
      "type": "function"
    },
    {
      "inputs": [
        {
          "internalType": "uint256",
          "name": "_dna",
          "type": "uint256"
        }
      ],
      "name": "getSkinColor",
      "outputs": [
        {
          "internalType": "string",
          "name": "",
          "type": "string"
        }
      ],
      "stateMutability": "view",
      "type": "function"
    },
    {
      "inputs": [
        {
          "internalType": "uint256",
          "name": "_dna",
          "type": "uint256"
        }
      ],
      "name": "getTopType",
      "outputs": [
        {
          "internalType": "string",
          "name": "",
          "type": "string"
        }
      ],
      "stateMutability": "view",
      "type": "function"
    }
  ],
  "bytecode": "0x600561016081815264426c616e6b60d81b61018052608090815260046101a09081526312dd5c9d60e21b6101c05260a052600e6101e08181526d507265736372697074696f6e303160901b6102005260c0526102209081526d283932b9b1b934b83a34b7b7181960911b6102405260e05261026091825264149bdd5b9960da1b6102805261010091909152600a6102a09081526953756e676c617373657360b01b6102c0526101205261032060405260096102e09081526857617966617265727360b81b6103005261014052620000db906000906007620017be565b50604080516102208101825260056101e0820181815264426c61636b60d81b610200840152825282518084018452600680825265426c7565303160d01b60208381019190915280850192909252845180860186528181526521363ab2981960d11b81840152848601528451808601865281815265426c7565303360d01b818401526060850152845180860186528181526547726179303160d01b818401526080850152845180860186529081526523b930bc981960d11b8183015260a08401528351808501855260078152662432b0ba3432b960c91b8183015260c084015283518085018552600a81526950617374656c426c756560b01b8183015260e084015283518085018552600b81526a2830b9ba32b623b932b2b760a91b8183015261010084015283518085018552600c8082526b50617374656c4f72616e676560a01b8284015261012085019190915284518086018652600981526814185cdd195b14995960ba1b81840152610140850152845180860186529081526b50617374656c59656c6c6f7760a01b8183015261016084015283518085018552600481526350696e6b60e01b8183015261018084015283518085018552600381526214995960ea1b818301526101a0840152835180850190945290835264576869746560d81b908301526101c0810191909152620002d990600190600f6200181b565b506040805161016081018252600b61012082019081526a109b185e995c94da1a5c9d60aa1b610140830152815281518083018352600d8082526c213630bd32b929bbb2b0ba32b960991b60208381019190915280840192909252835180850185528181526c21b7b63630b929bbb2b0ba32b960991b818401528385015283518085018552600c81526b11dc985c1a1a58d4da1a5c9d60a21b818401526060840152835180850185526006815265486f6f64696560d01b81840152608084015283518085018552600781526613dd995c985b1b60ca1b8184015260a0840152835180850185529081526c5368697274437265774e65636b60981b8183015260c083015282518084018452600e81526d536869727453636f6f704e65636b60901b8183015260e08301528251808401909352600a8352695368697274564e65636b60b01b908301526101008101919091526200043890600290600962001866565b5060405180610180016040528060405180604001604052806005815260200164436c6f736560d81b81525081526020016040518060400160405280600381526020016243727960e81b815250815260200160405180604001604052806007815260200166111959985d5b1d60ca1b81525081526020016040518060400160405280600581526020016444697a7a7960d81b815250815260200160405180604001604052806007815260200166115e59549bdb1b60ca1b815250815260200160405180604001604052806005815260200164486170707960d81b81525081526020016040518060400160405280600681526020016548656172747360d01b8152508152602001604051806040016040528060048152602001635369646560e01b81525081526020016040518060400160405280600681526020016514dc5d5a5b9d60d21b81525081526020016040518060400160405280600981526020016814dd5c9c1c9a5cd95960ba1b81525081526020016040518060400160405280600481526020016357696e6b60e01b81525081526020016040518060400160405280600981526020016857696e6b5761636b7960b81b815250815250600390600c62000603929190620018b1565b50604080516101c0810182526005610180820190815264416e67727960d81b6101a0830152815281518083018352600c8082526b105b99dc9e53985d1d5c985b60a21b60208381019190915280840192909252835180850185526007815266111959985d5b1d60ca1b818401528385015283518085018552600e8082526d111959985d5b1d13985d1d5c985b60921b82850152606085019190915284518086018652600b81526a119b185d13985d1d5c985b60aa1b81850152608085015284518086018652600d8082526c14985a5cd959115e18da5d1959609a1b8286015260a086019190915285518087018752601481527f526169736564457863697465644e61747572616c0000000000000000000000008186015260c0860152855180870187528381526b14d85910dbdb98d95c9b995960a21b8186015260e086015285518087018752601381527f536164436f6e6365726e65644e61747572616c0000000000000000000000000081860152610100860152855180870187529182526d155b9a589c9bddd3985d1d5c985b60921b828501526101208501919091528451808601865260068152652ab82237bbb760d11b81850152610140850152845180860190955284526c155c111bdddb93985d1d5c985b609a1b91840191909152610160820192909252620007fa9160049190620018b1565b506040518061010001604052806040518060400160405280600681526020016520bab13ab93760d11b815250815260200160405180604001604052806005815260200164426c61636b60d81b815250815260200160405180604001604052806006815260200165426c6f6e646560d01b81525081526020016040518060400160405280600c81526020016b213637b73232a3b7b63232b760a11b815250815260200160405180604001604052806005815260200164213937bbb760d91b81525081526020016040518060400160405280600981526020016842726f776e4461726b60b81b815250815260200160405180604001604052806008815260200167506c6174696e756d60c01b81525081526020016040518060400160405280600381526020016214995960ea1b81525081525060059060086200093d929190620018fc565b506040805161010081018252600560c0820190815264426c616e6b60d81b60e0830152815281518083018352600b81526a42656172644d656469756d60a81b6020828101919091528083019190915282518084018452600a8152691099585c99131a59da1d60b21b818301528284015282518084018452600d81526c42656172644d6167657374696360981b81830152606083015282518084018452600e81526d4d6f7573746163686546616e637960901b8183015260808301528251808401909352600f83526e4d6f757374616368654d61676e756d60881b9083015260a081019190915262000a32906006908162001947565b506040805161018081018252600661014082018181526520bab13ab93760d11b610160840152825282518084018452600580825264426c61636b60d81b602083810191909152808501929092528451808601865292835265426c6f6e646560d01b838301528385019290925283518085018552600c81526b213637b73232a3b7b63232b760a11b8183015260608401528351808501855291825264213937bbb760d91b82820152608083019190915282518084018452600981526842726f776e4461726b60b81b8183015260a083015282518084018452600a8082526950617374656c50696e6b60b01b8284015260c0840191909152835180850185526008815267506c6174696e756d60c01b8184015260e084015283518085018552600381526214995960ea1b8184015261010084015283518085019094528084526953696c7665724772617960b01b9184019190915261012082019290925262000b9c916007919062001992565b50604080516102208101825260056101e0820181815264426c61636b60d81b610200840152825282518084018452600680825265426c7565303160d01b60208381019190915280850192909252845180860186528181526521363ab2981960d11b81840152848601528451808601865281815265426c7565303360d01b818401526060850152845180860186528181526547726179303160d01b818401526080850152845180860186529081526523b930bc981960d11b8183015260a08401528351808501855260078152662432b0ba3432b960c91b8183015260c084015283518085018552600a81526950617374656c426c756560b01b8183015260e084015283518085018552600b81526a2830b9ba32b623b932b2b760a91b8183015261010084015283518085018552600c8082526b50617374656c4f72616e676560a01b8284015261012085019190915284518086018652600981526814185cdd195b14995960ba1b81840152610140850152845180860186529081526b50617374656c59656c6c6f7760a01b8183015261016084015283518085018552600481526350696e6b60e01b8183015261018084015283518085018552600381526214995960ea1b818301526101a0840152835180850190945290835264576869746560d81b908301526101c081019190915262000d9a90600890600f6200181b565b50604080516101a081018252600361016082019081526210985d60ea1b61018083015281528151808301835260068082526543756d62696160d01b60208381019190915280840192909252835180850185526004808252632232b2b960e11b8285015284860191909152845180860186526007815266111a585b5bdb9960ca1b8185015260608501528451808601865281815263486f6c6160e01b8185015260808501528451808601865260058082526450697a7a6160d81b8286015260a0860191909152855180870187528381526514995cda5cdd60d21b8186015260c0860152855180870187529283526553656c656e6160d01b8385015260e085019290925284518086018652908152632132b0b960e11b8184015261010084015283518085018552600c81526b536b756c6c4f75746c696e6560a01b81840152610120840152835180850190945283526414dadd5b1b60da1b9083015261014081019190915262000f0d90600990600b620019dd565b506040518061018001604052806040518060400160405280600981526020016810dbdb98d95c9b995960ba1b815250815260200160405180604001604052806007815260200166111959985d5b1d60ca1b8152508152602001604051806040016040528060098152602001682234b9b132b634b2b360b91b815250815260200160405180604001604052806006815260200165456174696e6760d01b8152508152602001604051806040016040528060078152602001664772696d61636560c81b81525081526020016040518060400160405280600381526020016214d85960ea1b81525081526020016040518060400160405280600a81526020016929b1b932b0b6a7b832b760b11b815250815260200160405180604001604052806007815260200166536572696f757360c81b815250815260200160405180604001604052806005815260200164536d696c6560d81b815250815260200160405180604001604052806006815260200165546f6e67756560d01b8152508152602001604051806040016040528060078152602001665477696e6b6c6560c81b815250815260200160405180604001604052806005815260200164159bdb5a5d60da1b815250815250600a90600c620010e3929190620018b1565b506040805161012081018252600660e082018181526515185b9b995960d21b6101008401528252825180840184529081526559656c6c6f7760d01b6020828101919091528083019190915282518084018452600481526350616c6560e01b818301528284015282518084018452600580825264131a59da1d60da1b8284015260608401919091528351808501855281815264213937bbb760d91b8184015260808401528351808501855260098152682230b935a13937bbb760b91b8184015260a08401528351808501909452835264426c61636b60d81b9083015260c0810191909152620011d690600b906007620017be565b50604080516104a08101825260066104608201818152652737a430b4b960d11b610480840152825282518084018452600881526708af2cae0c2e8c6d60c31b6020828101919091528084019190915283518085018552600381526212185d60ea1b81830152838501528351808501855260058152642434b530b160d91b81830152606084015283518085018552918252652a3ab93130b760d11b82820152608083019190915282518084018452600a8082526957696e7465724861743160b01b8284015260a084019190915283518085018552818152692bb4b73a32b92430ba1960b11b8184015260c0840152835180850185528181526957696e7465724861743360b01b8184015260e0840152835180850185529081526915da5b9d195c92185d0d60b21b8183015261010083015282518084018452600f8082526e2637b733a430b4b92134b3a430b4b960891b8284015261012084019190915283518085018552600b8082526a2637b733a430b4b92137b160a91b82850152610140850191909152845180860186528181526a2637b733a430b4b9213ab760a91b8185015261016085015284518086018652600d8082526c4c6f6e67486169724375726c7960981b82860152610180860191909152855180870187528181526c4c6f6e6748616972437572767960981b818601526101a086015285518087018752600e8082526d4c6f6e674861697244726561647360901b828701526101c0870191909152865180880188529182526c4c6f6e6748616972467269646160981b828601526101e0860191909152855180870187529182526a4c6f6e674861697246726f60a81b82850152610200850191909152845180860186529182526e131bdb99d2185a5c919c9bd0985b99608a1b82840152610220840191909152835180850185526012808252714c6f6e67486169724e6f74546f6f4c6f6e6760701b828501526102408501919091528451808601865260138082527f4c6f6e67486169725368617665645369646573000000000000000000000000008286015261026086019190915285518087018752828152714c6f6e67486169724d696157616c6c61636560701b818601526102808601528551808701875260108082526f131bdb99d2185a5c94dd1c985a59da1d60821b828701526102a0870191909152865180880188526011808252702637b733a430b4b929ba3930b4b3b43a1960791b828801526102c088019190915287518089018952601681527f4c6f6e67486169725374726169676874537472616e6400000000000000000000818801526102e0880152875180890189528181527053686f727448616972447265616473303160781b81880152610300880152875180890189529081527029b437b93a2430b4b9223932b0b239981960791b81870152610320870152865180880188529081526f53686f7274486169724672697a7a6c6560801b8186015261034086015285518087018752601581527f53686f7274486169725368616767794d756c6c6574000000000000000000000081860152610360860152855180870187528181527f53686f72744861697253686f72744375726c790000000000000000000000000081860152610380860152855180870187528281527114da1bdc9d12185a5c94da1bdc9d119b185d60721b818601526103a0860152855180870187528181527f53686f72744861697253686f7274526f756e6400000000000000000000000000818601526103c0860152855180870187529081527f53686f72744861697253686f7274576176656400000000000000000000000000818501526103e0850152845180860186529182526d53686f727448616972536964657360901b82840152610400840191909152835180850185529081527129b437b93a2430b4b92a3432a1b0b2b9b0b960711b818301526104208301528251808401909352601a83527f53686f727448616972546865436165736172536964655061727400000000000090830152610440810191909152620017a990600c90602362001a28565b50348015620017b757600080fd5b5062001c5e565b82805482825590600052602060002090810192821562001809579160200282015b82811115620018095782518290620017f8908262001b92565b5091602001919060010190620017df565b506200181792915062001a73565b5090565b82805482825590600052602060002090810192821562001809579160200282015b8281111562001809578251829062001855908262001b92565b50916020019190600101906200183c565b82805482825590600052602060002090810192821562001809579160200282015b82811115620018095782518290620018a0908262001b92565b509160200191906001019062001887565b82805482825590600052602060002090810192821562001809579160200282015b82811115620018095782518290620018eb908262001b92565b5091602001919060010190620018d2565b82805482825590600052602060002090810192821562001809579160200282015b8281111562001809578251829062001936908262001b92565b50916020019190600101906200191d565b82805482825590600052602060002090810192821562001809579160200282015b8281111562001809578251829062001981908262001b92565b509160200191906001019062001968565b82805482825590600052602060002090810192821562001809579160200282015b82811115620018095782518290620019cc908262001b92565b5091602001919060010190620019b3565b82805482825590600052602060002090810192821562001809579160200282015b8281111562001809578251829062001a17908262001b92565b5091602001919060010190620019fe565b82805482825590600052602060002090810192821562001809579160200282015b8281111562001809578251829062001a62908262001b92565b509160200191906001019062001a49565b808211156200181757600062001a8a828262001a94565b5060010162001a73565b50805462001aa29062001b03565b6000825580601f1062001ab3575050565b601f01602090049060005260206000209081019062001ad3919062001ad6565b50565b5b8082111562001817576000815560010162001ad7565b634e487b7160e01b600052604160045260246000fd5b600181811c9082168062001b1857607f821691505b60208210810362001b3957634e487b7160e01b600052602260045260246000fd5b50919050565b601f82111562001b8d57600081815260208120601f850160051c8101602086101562001b685750805b601f850160051c820191505b8181101562001b895782815560010162001b74565b5050505b505050565b81516001600160401b0381111562001bae5762001bae62001aed565b62001bc68162001bbf845462001b03565b8462001b3f565b602080601f83116001811462001bfe576000841562001be55750858301515b600019600386901b1c1916600185901b17855562001b89565b600085815260208120601f198616915b8281101562001c2f5788860151825594840194600190910190840162001c0e565b508582101562001c4e5787850151600019600388901b60f8161c191681555b5050505050600190811b01905550565b6108118062001c6e6000396000f3fe608060405234801561001057600080fd5b50600436106100ea5760003560e01c80638602dd6a1161008c578063b70930de11610066578063b70930de146101d1578063c0496cf5146101e4578063cc4e5695146101f7578063dac1419e1461020a57600080fd5b80638602dd6a1461018a57806388ee2c161461019d578063a2ec3e9e146101be57600080fd5b806360d58aed116100c857806360d58aed1461013e57806373075aff146101515780637ecaef061461016457806384425a841461017757600080fd5b8063039984ba146100ef57806318a3c0d114610118578063425d784f1461012b575b600080fd5b6101026100fd366004610556565b61021d565b60405161010f919061056f565b60405180910390f35b610102610126366004610556565b6102ee565b610102610139366004610556565b610314565b61010261014c366004610556565b61033a565b61010261015f366004610556565b610360565b610102610172366004610556565b610386565b610102610185366004610556565b6103aa565b610102610198366004610556565b6103d0565b6101b06101ab3660046105bd565b6103f6565b60405190815260200161010f565b6101026101cc366004610556565b610446565b6101026101df366004610556565b61046c565b6101026101f2366004610556565b610492565b610102610205366004610556565b6104b6565b610102610218366004610556565b6104dc565b6060600061022c836008610502565b60ff1690506004808054905082610243919061060f565b8154811061025357610253610623565b90600052602060002001805461026890610639565b80601f016020809104026020016040519081016040528092919081815260200182805461029490610639565b80156102e15780601f106102b6576101008083540402835291602001916102e1565b820191906000526020600020905b8154815290600101906020018083116102c457829003601f168201915b5050505050915050919050565b606060006102fd836004610502565b60ff1690506002808054905082610243919061060f565b60606000610323836014610502565b60ff169050600a808054905082610243919061060f565b60606000610349836018610502565b60ff169050600c808054905082610243919061060f565b6060600061036f836016610502565b60ff169050600b808054905082610243919061060f565b60606000610395836000610502565b60008054919250906102439060ff841661060f565b606060006103b9836006610502565b60ff1690506003808054905082610243919061060f565b606060006103df836012610502565b60ff1690506009808054905082610243919061060f565b60008061040c6001600160a01b03841685610689565b905060008160405160200161042391815260200190565b60408051601f198184030181529190528051602090910120925050505b92915050565b60606000610455836010610502565b60ff1690506008808054905082610243919061060f565b6060600061047b83600e610502565b60ff1690506007808054905082610243919061060f565b606060006104a1836002610502565b60018054919250906102439060ff841661060f565b606060006104c583600a610502565b60ff1690506005808054905082610243919061060f565b606060006104eb83600c610502565b60ff1690506006808054905082610243919061060f565b600061050f82600a610780565b61051a90600161078f565b6105256002846107ae565b61053090600a610780565b61053b90600161078f565b610545908561060f565b61054f91906107c7565b9392505050565b60006020828403121561056857600080fd5b5035919050565b600060208083528351808285015260005b8181101561059c57858101830151858201604001528201610580565b506000604082860101526040601f19601f8301168501019250505092915050565b600080604083850312156105d057600080fd5b8235915060208301356001600160a01b03811681146105ee57600080fd5b809150509250929050565b634e487b7160e01b600052601260045260246000fd5b60008261061e5761061e6105f9565b500690565b634e487b7160e01b600052603260045260246000fd5b600181811c9082168061064d57607f821691505b60208210810361066d57634e487b7160e01b600052602260045260246000fd5b50919050565b634e487b7160e01b600052601160045260246000fd5b8082018082111561044057610440610673565b600181815b808511156106d75781600019048211156106bd576106bd610673565b808516156106ca57918102915b93841c93908002906106a1565b509250929050565b6000826106ee57506001610440565b816106fb57506000610440565b8160018114610711576002811461071b57610737565b6001915050610440565b60ff84111561072c5761072c610673565b50506001821b610440565b5060208310610133831016604e8410600b841016171561075a575081810a610440565b610764838361069c565b806000190482111561077857610778610673565b029392505050565b600061054f60ff8416836106df565b60008160001904831182151516156107a9576107a9610673565b500290565b60ff818116838216019081111561044057610440610673565b6000826107d6576107d66105f9565b50049056fea2646970667358221220d3d21c236dbcb929f5a94e89737578679bba35facc12c999b2d9d72bc21b8e8f64736f6c63430008100033",
  "immutableReferences": {},
  "source": "// SPDX-License-Identifier: MIT\n\npragma solidity ^0.8.0;\n\ncontract PlatziPunksDNA {\n    string[] private _accessoriesType = [\n        \"Blank\",\n        \"Kurt\",\n        \"Prescription01\",\n        \"Prescription02\",\n        \"Round\",\n        \"Sunglasses\",\n        \"Wayfarers\"\n    ];\n\n    string[] private _clotheColor = [\n        \"Black\",\n        \"Blue01\",\n        \"Blue02\",\n        \"Blue03\",\n        \"Gray01\",\n        \"Gray02\",\n        \"Heather\",\n        \"PastelBlue\",\n        \"PastelGreen\",\n        \"PastelOrange\",\n        \"PastelRed\",\n        \"PastelYellow\",\n        \"Pink\",\n        \"Red\",\n        \"White\"\n    ];\n\n    string[] private _clotheType = [\n        \"BlazerShirt\",\n        \"BlazerSweater\",\n        \"CollarSweater\",\n        \"GraphicShirt\",\n        \"Hoodie\",\n        \"Overall\",\n        \"ShirtCrewNeck\",\n        \"ShirtScoopNeck\",\n        \"ShirtVNeck\"\n    ];\n\n    string[] private _eyeType = [\n        \"Close\",\n        \"Cry\",\n        \"Default\",\n        \"Dizzy\",\n        \"EyeRoll\",\n        \"Happy\",\n        \"Hearts\",\n        \"Side\",\n        \"Squint\",\n        \"Surprised\",\n        \"Wink\",\n        \"WinkWacky\"\n    ];\n\n    string[] private _eyebrowType = [\n        \"Angry\",\n        \"AngryNatural\",\n        \"Default\",\n        \"DefaultNatural\",\n        \"FlatNatural\",\n        \"RaisedExcited\",\n        \"RaisedExcitedNatural\",\n        \"SadConcerned\",\n        \"SadConcernedNatural\",\n        \"UnibrowNatural\",\n        \"UpDown\",\n        \"UpDownNatural\"\n    ];\n\n    string[] private _facialHairColor = [\n        \"Auburn\",\n        \"Black\",\n        \"Blonde\",\n        \"BlondeGolden\",\n        \"Brown\",\n        \"BrownDark\",\n        \"Platinum\",\n        \"Red\"\n    ];\n\n    string[] private _facialHairType = [\n        \"Blank\",\n        \"BeardMedium\",\n        \"BeardLight\",\n        \"BeardMagestic\",\n        \"MoustacheFancy\",\n        \"MoustacheMagnum\"\n    ];\n\n    string[] private _hairColor = [\n        \"Auburn\",\n        \"Black\",\n        \"Blonde\",\n        \"BlondeGolden\",\n        \"Brown\",\n        \"BrownDark\",\n        \"PastelPink\",\n        \"Platinum\",\n        \"Red\",\n        \"SilverGray\"\n    ];\n\n    string[] private _hatColor = [\n        \"Black\",\n        \"Blue01\",\n        \"Blue02\",\n        \"Blue03\",\n        \"Gray01\",\n        \"Gray02\",\n        \"Heather\",\n        \"PastelBlue\",\n        \"PastelGreen\",\n        \"PastelOrange\",\n        \"PastelRed\",\n        \"PastelYellow\",\n        \"Pink\",\n        \"Red\",\n        \"White\"\n    ];\n\n    string[] private _graphicType = [\n        \"Bat\",\n        \"Cumbia\",\n        \"Deer\",\n        \"Diamond\",\n        \"Hola\",\n        \"Pizza\",\n        \"Resist\",\n        \"Selena\",\n        \"Bear\",\n        \"SkullOutline\",\n        \"Skull\"\n    ];\n\n    string[] private _mouthType = [\n        \"Concerned\",\n        \"Default\",\n        \"Disbelief\",\n        \"Eating\",\n        \"Grimace\",\n        \"Sad\",\n        \"ScreamOpen\",\n        \"Serious\",\n        \"Smile\",\n        \"Tongue\",\n        \"Twinkle\",\n        \"Vomit\"\n    ];\n\n    string[] private _skinColor = [\n        \"Tanned\",\n        \"Yellow\",\n        \"Pale\",\n        \"Light\",\n        \"Brown\",\n        \"DarkBrown\",\n        \"Black\"\n    ];\n\n    string[] private _topType = [\n        \"NoHair\",\n        \"Eyepatch\",\n        \"Hat\",\n        \"Hijab\",\n        \"Turban\",\n        \"WinterHat1\",\n        \"WinterHat2\",\n        \"WinterHat3\",\n        \"WinterHat4\",\n        \"LongHairBigHair\",\n        \"LongHairBob\",\n        \"LongHairBun\",\n        \"LongHairCurly\",\n        \"LongHairCurvy\",\n        \"LongHairDreads\",\n        \"LongHairFrida\",\n        \"LongHairFro\",\n        \"LongHairFroBand\",\n        \"LongHairNotTooLong\",\n        \"LongHairShavedSides\",\n        \"LongHairMiaWallace\",\n        \"LongHairStraight\",\n        \"LongHairStraight2\",\n        \"LongHairStraightStrand\",\n        \"ShortHairDreads01\",\n        \"ShortHairDreads02\",\n        \"ShortHairFrizzle\",\n        \"ShortHairShaggyMullet\",\n        \"ShortHairShortCurly\",\n        \"ShortHairShortFlat\",\n        \"ShortHairShortRound\",\n        \"ShortHairShortWaved\",\n        \"ShortHairSides\",\n        \"ShortHairTheCaesar\",\n        \"ShortHairTheCaesarSidePart\"\n    ];\n\n    // This pseudo random function is determistic and should not be used on production\n    function deterministicPseudoRandomDNA(uint256 _tokenId, address _minter)\n        public\n        pure\n        returns (uint256)\n    {\n        uint256 combinedParams = _tokenId + uint160(_minter);\n        bytes memory encodedParams = abi.encodePacked(combinedParams);\n        bytes32 hashedParams = keccak256(encodedParams);\n\n        return uint256(hashedParams);\n    }\n\n    // Get attributes\n    uint8 constant ADN_SECTION_SIZE = 2;\n\n    function _getDNASection(uint256 _dna, uint8 _rightDiscard)\n        internal\n        pure\n        returns (uint8)\n    {\n        return\n            uint8(\n                (_dna % (1 * 10**(_rightDiscard + ADN_SECTION_SIZE))) /\n                    (1 * 10**_rightDiscard)\n            );\n    }\n\n    function getAccessoriesType(uint256 _dna)\n        public\n        view\n        returns (string memory)\n    {\n        uint8 dnaSection = _getDNASection(_dna, 0);\n        return _accessoriesType[dnaSection % _accessoriesType.length];\n    }\n\n    function getClotheColor(uint256 _dna) public view returns (string memory) {\n        uint8 dnaSection = _getDNASection(_dna, 2);\n        return _clotheColor[dnaSection % _clotheColor.length];\n    }\n\n    function getClotheType(uint256 _dna) public view returns (string memory) {\n        uint256 dnaSection = _getDNASection(_dna, 4);\n        return _clotheType[dnaSection % _clotheType.length];\n    }\n\n    function getEyeType(uint256 _dna) public view returns (string memory) {\n        uint256 dnaSection = _getDNASection(_dna, 6);\n        return _eyeType[dnaSection % _eyeType.length];\n    }\n\n    function getEyeBrowType(uint256 _dna) public view returns (string memory) {\n        uint256 dnaSection = _getDNASection(_dna, 8);\n        return _eyebrowType[dnaSection % _eyebrowType.length];\n    }\n\n    function getFacialHairColor(uint256 _dna)\n        public\n        view\n        returns (string memory)\n    {\n        uint256 dnaSection = _getDNASection(_dna, 10);\n        return _facialHairColor[dnaSection % _facialHairColor.length];\n    }\n\n    function getFacialHairType(uint256 _dna)\n        public\n        view\n        returns (string memory)\n    {\n        uint256 dnaSection = _getDNASection(_dna, 12);\n        return _facialHairType[dnaSection % _facialHairType.length];\n    }\n\n    function getHairColor(uint256 _dna) public view returns (string memory) {\n        uint256 dnaSection = _getDNASection(_dna, 14);\n        return _hairColor[dnaSection % _hairColor.length];\n    }\n\n    function getHatColor(uint256 _dna) public view returns (string memory) {\n        uint256 dnaSection = _getDNASection(_dna, 16);\n        return _hatColor[dnaSection % _hatColor.length];\n    }\n\n    function getGraphicType(uint256 _dna) public view returns (string memory) {\n        uint256 dnaSection = _getDNASection(_dna, 18);\n        return _graphicType[dnaSection % _graphicType.length];\n    }\n\n    function getMouthType(uint256 _dna) public view returns (string memory) {\n        uint256 dnaSection = _getDNASection(_dna, 20);\n        return _mouthType[dnaSection % _mouthType.length];\n    }\n\n    function getSkinColor(uint256 _dna) public view returns (string memory) {\n        uint256 dnaSection = _getDNASection(_dna, 22);\n        return _skinColor[dnaSection % _skinColor.length];\n    }\n\n    function getTopType(uint256 _dna) public view returns (string memory) {\n        uint256 dnaSection = _getDNASection(_dna, 24);\n        return _topType[dnaSection % _topType.length];\n    }\n}",
  "sourcePath": "/Users/rolilink/Dev/web3/platzi-punks/contracts/PlatziPunksDNA.sol",
  "compiler": {
    "name": "solc",
    "version": "0.8.16+commit.07a7930e.Emscripten.clang"
  },
  "schemaVersion": "3.4.9",
  "updatedAt": "2022-09-01T21:56:00.403Z",
  "devdoc": {
    "kind": "dev",
    "methods": {},
    "version": 1
  },
  "userdoc": {
    "kind": "user",
    "methods": {},
    "version": 1
  }
}